{
  "address": "0x16fa0AB1Cb6Cffa62507f164015E0A621a2e62Bb",
  "abi": [
    {
      "inputs": [],
      "stateMutability": "nonpayable",
      "type": "constructor"
    },
    {
      "anonymous": false,
      "inputs": [
        {
          "indexed": true,
          "internalType": "uint256",
          "name": "id",
          "type": "uint256"
        },
        {
          "indexed": false,
          "internalType": "string",
          "name": "name",
          "type": "string"
        },
        {
          "indexed": false,
          "internalType": "address",
          "name": "wallet",
          "type": "address"
        }
      ],
      "name": "AgentRegistered",
      "type": "event"
    },
    {
      "anonymous": false,
      "inputs": [
        {
          "indexed": true,
          "internalType": "uint256",
          "name": "id",
          "type": "uint256"
        },
        {
          "indexed": false,
          "internalType": "uint256",
          "name": "races",
          "type": "uint256"
        },
        {
          "indexed": false,
          "internalType": "uint256",
          "name": "wins",
          "type": "uint256"
        },
        {
          "indexed": false,
          "internalType": "uint256",
          "name": "bestScore",
          "type": "uint256"
        }
      ],
      "name": "AgentStatsUpdated",
      "type": "event"
    },
    {
      "anonymous": false,
      "inputs": [
        {
          "indexed": true,
          "internalType": "address",
          "name": "player",
          "type": "address"
        },
        {
          "indexed": false,
          "internalType": "uint256",
          "name": "playerScore",
          "type": "uint256"
        },
        {
          "indexed": false,
          "internalType": "uint256[4]",
          "name": "botScores",
          "type": "uint256[4]"
        }
      ],
      "name": "RaceCompleted",
      "type": "event"
    },
    {
      "inputs": [],
      "name": "AGENT_REGISTRY_TYPE",
      "outputs": [
        {
          "internalType": "string",
          "name": "",
          "type": "string"
        }
      ],
      "stateMutability": "view",
      "type": "function"
    },
    {
      "inputs": [],
      "name": "SERVICE_ENDPOINT",
      "outputs": [
        {
          "internalType": "string",
          "name": "",
          "type": "string"
        }
      ],
      "stateMutability": "view",
      "type": "function"
    },
    {
      "inputs": [],
      "name": "agentCount",
      "outputs": [
        {
          "internalType": "uint256",
          "name": "",
          "type": "uint256"
        }
      ],
      "stateMutability": "view",
      "type": "function"
    },
    {
      "inputs": [
        {
          "internalType": "uint256",
          "name": "",
          "type": "uint256"
        }
      ],
      "name": "agents",
      "outputs": [
        {
          "internalType": "uint256",
          "name": "id",
          "type": "uint256"
        },
        {
          "internalType": "string",
          "name": "name",
          "type": "string"
        },
        {
          "internalType": "address",
          "name": "wallet",
          "type": "address"
        },
        {
          "internalType": "uint256",
          "name": "totalRaces",
          "type": "uint256"
        },
        {
          "internalType": "uint256",
          "name": "wins",
          "type": "uint256"
        },
        {
          "internalType": "uint256",
          "name": "bestScore",
          "type": "uint256"
        },
        {
          "internalType": "uint256",
          "name": "totalDistance",
          "type": "uint256"
        },
        {
          "internalType": "bool",
          "name": "registered",
          "type": "bool"
        }
      ],
      "stateMutability": "view",
      "type": "function"
    },
    {
      "inputs": [
        {
          "internalType": "uint256",
          "name": "_id",
          "type": "uint256"
        }
      ],
      "name": "getAgent",
      "outputs": [
        {
          "components": [
            {
              "internalType": "uint256",
              "name": "id",
              "type": "uint256"
            },
            {
              "internalType": "string",
              "name": "name",
              "type": "string"
            },
            {
              "internalType": "address",
              "name": "wallet",
              "type": "address"
            },
            {
              "internalType": "uint256",
              "name": "totalRaces",
              "type": "uint256"
            },
            {
              "internalType": "uint256",
              "name": "wins",
              "type": "uint256"
            },
            {
              "internalType": "uint256",
              "name": "bestScore",
              "type": "uint256"
            },
            {
              "internalType": "uint256",
              "name": "totalDistance",
              "type": "uint256"
            },
            {
              "internalType": "bool",
              "name": "registered",
              "type": "bool"
            }
          ],
          "internalType": "struct SpaceRunnerAgents.Agent",
          "name": "",
          "type": "tuple"
        }
      ],
      "stateMutability": "view",
      "type": "function"
    },
    {
      "inputs": [
        {
          "internalType": "uint256",
          "name": "_id",
          "type": "uint256"
        }
      ],
      "name": "getAgentURI",
      "outputs": [
        {
          "internalType": "string",
          "name": "",
          "type": "string"
        }
      ],
      "stateMutability": "view",
      "type": "function"
    },
    {
      "inputs": [],
      "name": "getAllAgents",
      "outputs": [
        {
          "components": [
            {
              "internalType": "uint256",
              "name": "id",
              "type": "uint256"
            },
            {
              "internalType": "string",
              "name": "name",
              "type": "string"
            },
            {
              "internalType": "address",
              "name": "wallet",
              "type": "address"
            },
            {
              "internalType": "uint256",
              "name": "totalRaces",
              "type": "uint256"
            },
            {
              "internalType": "uint256",
              "name": "wins",
              "type": "uint256"
            },
            {
              "internalType": "uint256",
              "name": "bestScore",
              "type": "uint256"
            },
            {
              "internalType": "uint256",
              "name": "totalDistance",
              "type": "uint256"
            },
            {
              "internalType": "bool",
              "name": "registered",
              "type": "bool"
            }
          ],
          "internalType": "struct SpaceRunnerAgents.Agent[]",
          "name": "",
          "type": "tuple[]"
        }
      ],
      "stateMutability": "view",
      "type": "function"
    },
    {
      "inputs": [],
      "name": "owner",
      "outputs": [
        {
          "internalType": "address",
          "name": "",
          "type": "address"
        }
      ],
      "stateMutability": "view",
      "type": "function"
    },
    {
      "inputs": [
        {
          "internalType": "string",
          "name": "_name",
          "type": "string"
        },
        {
          "internalType": "address",
          "name": "_wallet",
          "type": "address"
        }
      ],
      "name": "registerAgent",
      "outputs": [
        {
          "internalType": "uint256",
          "name": "",
          "type": "uint256"
        }
      ],
      "stateMutability": "nonpayable",
      "type": "function"
    },
    {
      "inputs": [
        {
          "internalType": "address",
          "name": "_wallet0",
          "type": "address"
        },
        {
          "internalType": "address",
          "name": "_wallet1",
          "type": "address"
        },
        {
          "internalType": "address",
          "name": "_wallet2",
          "type": "address"
        },
        {
          "internalType": "address",
          "name": "_wallet3",
          "type": "address"
        }
      ],
      "name": "registerAllBots",
      "outputs": [],
      "stateMutability": "nonpayable",
      "type": "function"
    },
    {
      "inputs": [
        {
          "internalType": "uint256[4]",
          "name": "_botScores",
          "type": "uint256[4]"
        },
        {
          "internalType": "uint256[4]",
          "name": "_botDistances",
          "type": "uint256[4]"
        },
        {
          "internalType": "uint256",
          "name": "_playerScore",
          "type": "uint256"
        }
      ],
      "name": "updateRaceResults",
      "outputs": [],
      "stateMutability": "nonpayable",
      "type": "function"
    }
  ],
  "transactionHash": "0x2c6ae70bc801ac4b26c806bc63d2b5b53e506127ca9b8f049660ab49ad9ebc0a",
  "args": [],
  "numDeployments": 1,
  "solcInputHash": "cdbe509d5e3260cf1044065d3d012cbc",
  "bytecode": "0x6080604052348015600f57600080fd5b50600280546001600160a01b031916331790556111c8806100316000396000f3fe608060405234801561001057600080fd5b50600436106100a95760003560e01c80639305fb54116100715780639305fb5414610187578063b7dc1284146101a8578063bdb71934146101b1578063c1424178146101c6578063ce91aede146101d9578063e3e57c27146101ec57600080fd5b80632de5aaf7146100ae578063513856c8146100d7578063647ae9aa146100fe578063860e4ac6146101475780638da5cb5b1461015c575b600080fd5b6100c16100bc366004610c2f565b6101f4565b6040516100ce9190610d01565b60405180910390f35b6100ea6100e5366004610c2f565b610359565b6040516100ce989796959493929190610d1b565b61013a6040518060400160405280601e81526020017f6569703135353a34333131333a537061636552756e6e65724167656e7473000081525081565b6040516100ce9190610d73565b61014f610432565b6040516100ce9190610d86565b60025461016f906001600160a01b031681565b6040516001600160a01b0390911681526020016100ce565b61019a610195366004610e07565b6105c6565b6040519081526020016100ce565b61019a60015481565b6101c46101bf366004610ea1565b61077c565b005b6101c46101d4366004610ee2565b61093c565b61013a6101e7366004610c2f565b610a2f565b61013a610aa4565b6101fc610bdf565b60008281526020819052604090206007015460ff166102545760405162461bcd60e51b815260206004820152600f60248201526e1059d95b9d081b9bdd08199bdd5b99608a1b60448201526064015b60405180910390fd5b600082815260208181526040918290208251610100810190935280548352600181018054919284019161028690610f36565b80601f01602080910402602001604051908101604052809291908181526020018280546102b290610f36565b80156102ff5780601f106102d4576101008083540402835291602001916102ff565b820191906000526020600020905b8154815290600101906020018083116102e257829003601f168201915b505050918352505060028201546001600160a01b03166020820152600382015460408201526004820154606082015260058201546080820152600682015460a082015260079091015460ff16151560c09091015292915050565b6000602081905290815260409020805460018201805491929161037b90610f36565b80601f01602080910402602001604051908101604052809291908181526020018280546103a790610f36565b80156103f45780601f106103c9576101008083540402835291602001916103f4565b820191906000526020600020905b8154815290600101906020018083116103d757829003601f168201915b5050506002840154600385015460048601546005870154600688015460079098015496976001600160a01b0390941696929550909350919060ff1688565b6060600060015467ffffffffffffffff81111561045157610451610f6a565b60405190808252806020026020018201604052801561048a57816020015b610477610bdf565b81526020019060019003908161046f5790505b50905060005b6001548110156105c05760008181526020818152604091829020825161010081019093528054835260018101805491928401916104cc90610f36565b80601f01602080910402602001604051908101604052809291908181526020018280546104f890610f36565b80156105455780601f1061051a57610100808354040283529160200191610545565b820191906000526020600020905b81548152906001019060200180831161052857829003601f168201915b505050918352505060028201546001600160a01b03166020820152600382015460408201526004820154606082015260058201546080820152600682015460a082015260079091015460ff16151560c09091015282518390839081106105ad576105ad610f80565b6020908102919091010152600101610490565b50919050565b6002546000906001600160a01b0316331461060f5760405162461bcd60e51b81526020600482015260096024820152682737ba1037bbb732b960b91b604482015260640161024b565b6000600154905060405180610100016040528082815260200186868080601f01602080910402602001604051908101604052809392919081815260200183838082843760009201829052509385525050506001600160a01b0386166020808401919091526040808401839052606084018390526080840183905260a08401839052600160c0909401849052858352828252909120835181559083015190918201906106ba9082610fe5565b5060408201516002820180546001600160a01b0319166001600160a01b03909216919091179055606082015160038201556080820151600482015560a0820151600582015560c0820151600682015560e0909101516007909101805460ff191691151591909117905560018054906000610733836110ba565b9190505550807faef1fcdf962a03943b677ae3b92ef1b34c972aeef794ed6e9ba5f599b461883b86868660405161076c939291906110d3565b60405180910390a2949350505050565b600460015410156107c55760405162461bcd60e51b8152602060048201526013602482015272109bdd1cc81b9bdd081c9959da5cdd195c9959606a1b604482015260640161024b565b60005b60048110156108f357600081815260208190526040812060038101805491926107f0836110ba565b919050555083826004811061080757610807610f80565b602002013581600601600082825461081f9190611114565b9091555050600581015485836004811061083b5761083b610f80565b602002013511156108635784826004811061085857610858610f80565b602002013560058201555b8285836004811061087657610876610f80565b6020020135111561089957600481018054906000610893836110ba565b91905055505b6003810154600482015460058301546040805193845260208401929092529082015282907fe2b86be09edf0c2a3958669b7b3dc7ab7b735a2c55bb5ad1539e2400dc0ee7679060600160405180910390a2506001016107c8565b50336001600160a01b03167f14bea37dd09ec13e45066fceb0c34b8e76278c54959688d263be431e739fd633828560405161092f929190611127565b60405180910390a2505050565b6002546001600160a01b031633146109825760405162461bcd60e51b81526020600482015260096024820152682737ba1037bbb732b960b91b604482015260640161024b565b6109ad6040518060400160405280600981526020016810dc9e5c1d1bd2da5960ba1b81525085610ac0565b6109d5604051806040016040528060068152602001652427a22632b960d11b81525084610ac0565b610a00604051806040016040528060098152602001682232a334a232b3b2b760b91b81525083610ac0565b610a29604051806040016040528060078152602001664d6f6f6e426f7960c81b81525082610ac0565b50505050565b60008181526020819052604090206007015460609060ff16610a855760405162461bcd60e51b815260206004820152600f60248201526e1059d95b9d081b9bdd08199bdd5b99608a1b604482015260640161024b565b6040518060600160405280602b8152602001611168602b913992915050565b6040518060600160405280602b8152602001611168602b913981565b60018054604080516101008101825282815260208082018781526001600160a01b038716838501526000606084018190526080840181905260a0840181905260c0840181905260e08401879052858152918290529290208151815591519293909290820190610b2f9082610fe5565b5060408201516002820180546001600160a01b0319166001600160a01b03909216919091179055606082015160038201556080820151600482015560a0820151600582015560c0820151600682015560e0909101516007909101805460ff191691151591909117905560018054906000610ba8836110ba565b9190505550807faef1fcdf962a03943b677ae3b92ef1b34c972aeef794ed6e9ba5f599b461883b848460405161092f92919061113d565b604051806101000160405280600081526020016060815260200160006001600160a01b03168152602001600081526020016000815260200160008152602001600081526020016000151581525090565b600060208284031215610c4157600080fd5b5035919050565b6000815180845260005b81811015610c6e57602081850181015186830182015201610c52565b506000602082860101526020601f19601f83011685010191505092915050565b80518252600060208201516101006020850152610caf610100850182610c48565b905060018060a01b036040840151166040850152606083015160608501526080830151608085015260a083015160a085015260c083015160c085015260e0830151151560e08501528091505092915050565b602081526000610d146020830184610c8e565b9392505050565b88815261010060208201526000610d3661010083018a610c48565b6001600160a01b03989098166040830152506060810195909552608085019390935260a084019190915260c0830152151560e09091015292915050565b602081526000610d146020830184610c48565b6000602082016020835280845180835260408501915060408160051b86010192506020860160005b82811015610ddf57603f19878603018452610dca858351610c8e565b94506020938401939190910190600101610dae565b50929695505050505050565b80356001600160a01b0381168114610e0257600080fd5b919050565b600080600060408486031215610e1c57600080fd5b833567ffffffffffffffff811115610e3357600080fd5b8401601f81018613610e4457600080fd5b803567ffffffffffffffff811115610e5b57600080fd5b866020828401011115610e6d57600080fd5b602091820194509250610e81908501610deb565b90509250925092565b8060808101831015610e9b57600080fd5b92915050565b60008060006101208486031215610eb757600080fd5b610ec18585610e8a565b9250610ed08560808601610e8a565b92959294505050610100919091013590565b60008060008060808587031215610ef857600080fd5b610f0185610deb565b9350610f0f60208601610deb565b9250610f1d60408601610deb565b9150610f2b60608601610deb565b905092959194509250565b600181811c90821680610f4a57607f821691505b6020821081036105c057634e487b7160e01b600052602260045260246000fd5b634e487b7160e01b600052604160045260246000fd5b634e487b7160e01b600052603260045260246000fd5b601f821115610fe057806000526020600020601f840160051c81016020851015610fbd5750805b601f840160051c820191505b81811015610fdd5760008155600101610fc9565b50505b505050565b815167ffffffffffffffff811115610fff57610fff610f6a565b6110138161100d8454610f36565b84610f96565b6020601f821160018114611047576000831561102f5750848201515b600019600385901b1c1916600184901b178455610fdd565b600084815260208120601f198516915b828110156110775787850151825560209485019460019092019101611057565b50848210156110955786840151600019600387901b60f8161c191681555b50505050600190811b01905550565b634e487b7160e01b600052601160045260246000fd5b6000600182016110cc576110cc6110a4565b5060010190565b6040815282604082015282846060830137600060608483018101919091526001600160a01b03929092166020820152601f909201601f191690910101919050565b80820180821115610e9b57610e9b6110a4565b82815260a0810160808360208401379392505050565b6040815260006111506040830185610c48565b905060018060a01b0383166020830152939250505056fe68747470733a2f2f73706163652d72756e6e6572732e76657263656c2e6170702f6170692f6167656e7473a2646970667358221220b3b723777bd64d3f0dfdd77dfb00ed61e90cedc1cea9f52eb12599af4aa884d164736f6c634300081e0033",
  "devdoc": {
    "kind": "dev",
    "methods": {
      "registerAgent(string,address)": {
        "params": {
          "_name": "Agent display name",
          "_wallet": "Agent's onchain wallet address (can hold assets)"
        }
      },
      "updateRaceResults(uint256[4],uint256[4],uint256)": {
        "params": {
          "_botDistances": "Array of 4 bot distances from the race",
          "_botScores": "Array of 4 bot scores from the race",
          "_playerScore": "Player's score (to determine if a bot won)"
        }
      }
    },
    "title": "SpaceRunnerAgents",
    "version": 1
  },
  "userdoc": {
    "kind": "user",
    "methods": {
      "getAgent(uint256)": {
        "notice": "Get agent data (ERC-8004 style identity query)"
      },
      "getAgentURI(uint256)": {
        "notice": "ERC-8004 style: get agent's service endpoint"
      },
      "getAllAgents()": {
        "notice": "Get all registered agents"
      },
      "registerAgent(string,address)": {
        "notice": "Register a new autonomous agent (bot racer)"
      },
      "registerAllBots(address,address,address,address)": {
        "notice": "Batch register all 4 bot racers"
      },
      "updateRaceResults(uint256[4],uint256[4],uint256)": {
        "notice": "Update agent stats after a race. Called when player saves score. Agents \"react\" to game state — their performance is recorded onchain."
      }
    },
    "notice": "ERC-8004 inspired autonomous agent registry for Space Runners NPCs. Each bot racer is an onchain agent with identity, stats, and the ability to own assets (scores, victories). Agents react to game state: their stats update after every race based on performance. Follows ERC-8004 concepts: - Globally unique onchain identity per agent - Service endpoints (game API) - Reputation/stats that update based on interactions - Agents can \"own\" achievements onchain",
    "version": 1
  },
  "storageLayout": {
    "storage": [
      {
        "astId": 24,
        "contract": "contracts/SpaceRunnerAgents.sol:SpaceRunnerAgents",
        "label": "agents",
        "offset": 0,
        "slot": "0",
        "type": "t_mapping(t_uint256,t_struct(Agent)19_storage)"
      },
      {
        "astId": 26,
        "contract": "contracts/SpaceRunnerAgents.sol:SpaceRunnerAgents",
        "label": "agentCount",
        "offset": 0,
        "slot": "1",
        "type": "t_uint256"
      },
      {
        "astId": 28,
        "contract": "contracts/SpaceRunnerAgents.sol:SpaceRunnerAgents",
        "label": "owner",
        "offset": 0,
        "slot": "2",
        "type": "t_address"
      }
    ],
    "types": {
      "t_address": {
        "encoding": "inplace",
        "label": "address",
        "numberOfBytes": "20"
      },
      "t_bool": {
        "encoding": "inplace",
        "label": "bool",
        "numberOfBytes": "1"
      },
      "t_mapping(t_uint256,t_struct(Agent)19_storage)": {
        "encoding": "mapping",
        "key": "t_uint256",
        "label": "mapping(uint256 => struct SpaceRunnerAgents.Agent)",
        "numberOfBytes": "32",
        "value": "t_struct(Agent)19_storage"
      },
      "t_string_storage": {
        "encoding": "bytes",
        "label": "string",
        "numberOfBytes": "32"
      },
      "t_struct(Agent)19_storage": {
        "encoding": "inplace",
        "label": "struct SpaceRunnerAgents.Agent",
        "members": [
          {
            "astId": 4,
            "contract": "contracts/SpaceRunnerAgents.sol:SpaceRunnerAgents",
            "label": "id",
            "offset": 0,
            "slot": "0",
            "type": "t_uint256"
          },
          {
            "astId": 6,
            "contract": "contracts/SpaceRunnerAgents.sol:SpaceRunnerAgents",
            "label": "name",
            "offset": 0,
            "slot": "1",
            "type": "t_string_storage"
          },
          {
            "astId": 8,
            "contract": "contracts/SpaceRunnerAgents.sol:SpaceRunnerAgents",
            "label": "wallet",
            "offset": 0,
            "slot": "2",
            "type": "t_address"
          },
          {
            "astId": 10,
            "contract": "contracts/SpaceRunnerAgents.sol:SpaceRunnerAgents",
            "label": "totalRaces",
            "offset": 0,
            "slot": "3",
            "type": "t_uint256"
          },
          {
            "astId": 12,
            "contract": "contracts/SpaceRunnerAgents.sol:SpaceRunnerAgents",
            "label": "wins",
            "offset": 0,
            "slot": "4",
            "type": "t_uint256"
          },
          {
            "astId": 14,
            "contract": "contracts/SpaceRunnerAgents.sol:SpaceRunnerAgents",
            "label": "bestScore",
            "offset": 0,
            "slot": "5",
            "type": "t_uint256"
          },
          {
            "astId": 16,
            "contract": "contracts/SpaceRunnerAgents.sol:SpaceRunnerAgents",
            "label": "totalDistance",
            "offset": 0,
            "slot": "6",
            "type": "t_uint256"
          },
          {
            "astId": 18,
            "contract": "contracts/SpaceRunnerAgents.sol:SpaceRunnerAgents",
            "label": "registered",
            "offset": 0,
            "slot": "7",
            "type": "t_bool"
          }
        ],
        "numberOfBytes": "256"
      },
      "t_uint256": {
        "encoding": "inplace",
        "label": "uint256",
        "numberOfBytes": "32"
      }
    }
  }
}